{
	"_format": "hh-sol-artifact-1",
	"contractName": "AdvancedBookStore",
	"sourceName": "contracts/Advanced.sol",
	"abi": [
		{
			"inputs": [
				{
					"internalType": "address",
					"name": "_owner",
					"type": "address"
				}
			],
			"stateMutability": "nonpayable",
			"type": "constructor"
		},
		{
			"inputs": [
				{
					"internalType": "address",
					"name": "owner",
					"type": "address"
				}
			],
			"name": "OwnableInvalidOwner",
			"type": "error"
		},
		{
			"inputs": [
				{
					"internalType": "address",
					"name": "account",
					"type": "address"
				}
			],
			"name": "OwnableUnauthorizedAccount",
			"type": "error"
		},
		{
			"anonymous": false,
			"inputs": [
				{
					"indexed": true,
					"internalType": "uint256",
					"name": "bookId",
					"type": "uint256"
				},
				{
					"indexed": false,
					"internalType": "string",
					"name": "title",
					"type": "string"
				},
				{
					"indexed": false,
					"internalType": "string",
					"name": "author",
					"type": "string"
				},
				{
					"indexed": false,
					"internalType": "uint256",
					"name": "price",
					"type": "uint256"
				},
				{
					"indexed": false,
					"internalType": "uint256",
					"name": "stock",
					"type": "uint256"
				}
			],
			"name": "BookAdded",
			"type": "event"
		},
		{
			"anonymous": false,
			"inputs": [
				{
					"indexed": true,
					"internalType": "uint256",
					"name": "bookId",
					"type": "uint256"
				}
			],
			"name": "BookMarkedAsBestseller",
			"type": "event"
		},
		{
			"anonymous": false,
			"inputs": [
				{
					"indexed": true,
					"internalType": "uint256",
					"name": "bookId",
					"type": "uint256"
				}
			],
			"name": "BookRemoved",
			"type": "event"
		},
		{
			"anonymous": false,
			"inputs": [
				{
					"indexed": true,
					"internalType": "address",
					"name": "previousOwner",
					"type": "address"
				},
				{
					"indexed": true,
					"internalType": "address",
					"name": "newOwner",
					"type": "address"
				}
			],
			"name": "OwnershipTransferred",
			"type": "event"
		},
		{
			"anonymous": false,
			"inputs": [
				{
					"indexed": true,
					"internalType": "uint256",
					"name": "bookId",
					"type": "uint256"
				},
				{
					"indexed": true,
					"internalType": "address",
					"name": "buyer",
					"type": "address"
				},
				{
					"indexed": true,
					"internalType": "address",
					"name": "seller",
					"type": "address"
				},
				{
					"indexed": false,
					"internalType": "uint256",
					"name": "quantity",
					"type": "uint256"
				}
			],
			"name": "PurchaseConfirmed",
			"type": "event"
		},
		{
			"anonymous": false,
			"inputs": [
				{
					"indexed": true,
					"internalType": "uint256",
					"name": "bookId",
					"type": "uint256"
				},
				{
					"indexed": true,
					"internalType": "address",
					"name": "buyer",
					"type": "address"
				},
				{
					"indexed": true,
					"internalType": "address",
					"name": "seller",
					"type": "address"
				},
				{
					"indexed": false,
					"internalType": "uint256",
					"name": "quantity",
					"type": "uint256"
				}
			],
			"name": "PurchaseIntiated",
			"type": "event"
		},
		{
			"anonymous": false,
			"inputs": [
				{
					"indexed": true,
					"internalType": "address",
					"name": "subscriber",
					"type": "address"
				}
			],
			"name": "SubscriptionAdded",
			"type": "event"
		},
		{
			"anonymous": false,
			"inputs": [
				{
					"indexed": true,
					"internalType": "address",
					"name": "subscriber",
					"type": "address"
				}
			],
			"name": "SubscriptionRemoved",
			"type": "event"
		},
		{
			"inputs": [
				{
					"internalType": "uint256",
					"name": "_bookId",
					"type": "uint256"
				},
				{
					"internalType": "string",
					"name": "_title",
					"type": "string"
				},
				{
					"internalType": "string",
					"name": "_author",
					"type": "string"
				},
				{
					"internalType": "uint256",
					"name": "_price",
					"type": "uint256"
				},
				{
					"internalType": "uint256",
					"name": "_stock",
					"type": "uint256"
				}
			],
			"name": "addBook",
			"outputs": [],
			"stateMutability": "nonpayable",
			"type": "function"
		},
		{
			"inputs": [
				{
					"internalType": "uint256",
					"name": "",
					"type": "uint256"
				}
			],
			"name": "bestsellers",
			"outputs": [
				{
					"internalType": "bool",
					"name": "",
					"type": "bool"
				}
			],
			"stateMutability": "view",
			"type": "function"
		},
		{
			"inputs": [
				{
					"internalType": "uint256",
					"name": "",
					"type": "uint256"
				}
			],
			"name": "bookIds",
			"outputs": [
				{
					"internalType": "uint256",
					"name": "",
					"type": "uint256"
				}
			],
			"stateMutability": "view",
			"type": "function"
		},
		{
			"inputs": [
				{
					"internalType": "uint256",
					"name": "",
					"type": "uint256"
				}
			],
			"name": "books",
			"outputs": [
				{
					"internalType": "string",
					"name": "title",
					"type": "string"
				},
				{
					"internalType": "string",
					"name": "author",
					"type": "string"
				},
				{
					"internalType": "uint256",
					"name": "price",
					"type": "uint256"
				},
				{
					"internalType": "uint256",
					"name": "stock",
					"type": "uint256"
				},
				{
					"internalType": "bool",
					"name": "isAvailable",
					"type": "bool"
				}
			],
			"stateMutability": "view",
			"type": "function"
		},
		{
			"inputs": [
				{
					"internalType": "uint256",
					"name": "_bookId",
					"type": "uint256"
				},
				{
					"internalType": "uint256",
					"name": "_quantity",
					"type": "uint256"
				}
			],
			"name": "buyBook",
			"outputs": [],
			"stateMutability": "payable",
			"type": "function"
		},
		{
			"inputs": [
				{
					"internalType": "uint256",
					"name": "_bookId",
					"type": "uint256"
				},
				{
					"internalType": "uint256",
					"name": "_quantity",
					"type": "uint256"
				}
			],
			"name": "confirmPurchase",
			"outputs": [],
			"stateMutability": "nonpayable",
			"type": "function"
		},
		{
			"inputs": [
				{
					"internalType": "uint256",
					"name": "_bookId",
					"type": "uint256"
				}
			],
			"name": "getBooks",
			"outputs": [
				{
					"internalType": "string",
					"name": "",
					"type": "string"
				},
				{
					"internalType": "string",
					"name": "",
					"type": "string"
				},
				{
					"internalType": "uint256",
					"name": "",
					"type": "uint256"
				},
				{
					"internalType": "uint256",
					"name": "",
					"type": "uint256"
				},
				{
					"internalType": "bool",
					"name": "",
					"type": "bool"
				}
			],
			"stateMutability": "view",
			"type": "function"
		},
		{
			"inputs": [
				{
					"internalType": "uint256",
					"name": "_bookId",
					"type": "uint256"
				}
			],
			"name": "isBestseller",
			"outputs": [
				{
					"internalType": "bool",
					"name": "",
					"type": "bool"
				}
			],
			"stateMutability": "view",
			"type": "function"
		},
		{
			"inputs": [
				{
					"internalType": "uint256",
					"name": "_bookId",
					"type": "uint256"
				}
			],
			"name": "markAsBestseller",
			"outputs": [],
			"stateMutability": "nonpayable",
			"type": "function"
		},
		{
			"inputs": [],
			"name": "owner",
			"outputs": [
				{
					"internalType": "address",
					"name": "",
					"type": "address"
				}
			],
			"stateMutability": "view",
			"type": "function"
		},
		{
			"inputs": [
				{
					"internalType": "uint256",
					"name": "_bookId",
					"type": "uint256"
				}
			],
			"name": "removeBook",
			"outputs": [],
			"stateMutability": "nonpayable",
			"type": "function"
		},
		{
			"inputs": [],
			"name": "renounceOwnership",
			"outputs": [],
			"stateMutability": "nonpayable",
			"type": "function"
		},
		{
			"inputs": [
				{
					"internalType": "uint256",
					"name": "",
					"type": "uint256"
				}
			],
			"name": "subscriberList",
			"outputs": [
				{
					"internalType": "address",
					"name": "",
					"type": "address"
				}
			],
			"stateMutability": "view",
			"type": "function"
		},
		{
			"inputs": [
				{
					"internalType": "address",
					"name": "",
					"type": "address"
				}
			],
			"name": "subscribers",
			"outputs": [
				{
					"internalType": "bool",
					"name": "",
					"type": "bool"
				}
			],
			"stateMutability": "view",
			"type": "function"
		},
		{
			"inputs": [
				{
					"internalType": "address",
					"name": "newOwner",
					"type": "address"
				}
			],
			"name": "transferOwnership",
			"outputs": [],
			"stateMutability": "nonpayable",
			"type": "function"
		}
	],
	"bytecode": "0x60806040523480156200001157600080fd5b5060405162002068380380620020688339818101604052810190620000379190620001f6565b8080600073ffffffffffffffffffffffffffffffffffffffff168173ffffffffffffffffffffffffffffffffffffffff1603620000ae5760006040517f1e4fbdf7000000000000000000000000000000000000000000000000000000008152600401620000a5919062000239565b60405180910390fd5b620000bf81620000c860201b60201c565b50505062000256565b60008060009054906101000a900473ffffffffffffffffffffffffffffffffffffffff169050816000806101000a81548173ffffffffffffffffffffffffffffffffffffffff021916908373ffffffffffffffffffffffffffffffffffffffff1602179055508173ffffffffffffffffffffffffffffffffffffffff168173ffffffffffffffffffffffffffffffffffffffff167f8be0079c531659141344cd1fd0a4f28419497f9722a3daafe3b4186f6b6457e060405160405180910390a35050565b600080fd5b600073ffffffffffffffffffffffffffffffffffffffff82169050919050565b6000620001be8262000191565b9050919050565b620001d081620001b1565b8114620001dc57600080fd5b50565b600081519050620001f081620001c5565b92915050565b6000602082840312156200020f576200020e6200018c565b5b60006200021f84828501620001df565b91505092915050565b6200023381620001b1565b82525050565b600060208201905062000250600083018462000228565b92915050565b611e0280620002666000396000f3fe6080604052600436106100e85760003560e01c8063715018a61161008a5780638da5cb5b116100595780638da5cb5b14610325578063bec0d79914610350578063f2fde38b14610379578063f733719c146103a2576100e8565b8063715018a61461026b57806383c2eaba1461028257806389f2fa9c146102bf5780638c1af2e0146102fc576100e8565b80635745ae28116100c65780635745ae28146101835780635ac3e19e146101c05780636579404d14610201578063687440461461022a576100e8565b80633af8c2d5146100ed57806344420ebd14610109578063513073b814610146575b600080fd5b610107600480360381019061010291906111b5565b6103cb565b005b34801561011557600080fd5b50610130600480360381019061012b91906111f5565b6105d4565b60405161013d919061123d565b60405180910390f35b34801561015257600080fd5b5061016d600480360381019061016891906111f5565b6105f4565b60405161017a9190611267565b60405180910390f35b34801561018f57600080fd5b506101aa60048036038101906101a591906112e0565b610618565b6040516101b7919061123d565b60405180910390f35b3480156101cc57600080fd5b506101e760048036038101906101e291906111f5565b610638565b6040516101f895949392919061139d565b60405180910390f35b34801561020d57600080fd5b50610228600480360381019061022391906111f5565b6107e1565b005b34801561023657600080fd5b50610251600480360381019061024c91906111f5565b61089e565b60405161026295949392919061139d565b60405180910390f35b34801561027757600080fd5b506102806109f1565b005b34801561028e57600080fd5b506102a960048036038101906102a491906111f5565b610a05565b6040516102b6919061140d565b60405180910390f35b3480156102cb57600080fd5b506102e660048036038101906102e191906111f5565b610a44565b6040516102f3919061123d565b60405180910390f35b34801561030857600080fd5b50610323600480360381019061031e91906111b5565b610a6e565b005b34801561033157600080fd5b5061033a610b8b565b604051610347919061140d565b60405180910390f35b34801561035c57600080fd5b50610377600480360381019061037291906111f5565b610bb4565b005b34801561038557600080fd5b506103a0600480360381019061039b91906112e0565b610db1565b005b3480156103ae57600080fd5b506103c960048036038101906103c4919061155d565b610e37565b005b60006001600084815260200190815260200160002090508060040160009054906101000a900460ff16610433576040517f08c379a000000000000000000000000000000000000000000000000000000000815260040161042a9061165c565b60405180910390fd5b818160030154101561047a576040517f08c379a0000000000000000000000000000000000000000000000000000000008152600401610471906116c8565b60405180910390fd5b600082826002015461048c9190611717565b90508034146104d0576040517f08c379a00000000000000000000000000000000000000000000000000000000081526004016104c7906117a5565b60405180910390fd5b80341115610513576040517f08c379a000000000000000000000000000000000000000000000000000000000815260040161050a90611811565b60405180910390fd5b61051b610b8b565b73ffffffffffffffffffffffffffffffffffffffff163373ffffffffffffffffffffffffffffffffffffffff16857f795c01707eea3be54397e23c120afce586e315e3148eb7ea2a28d3331ab57f67866040516105789190611267565b60405180910390a4610588610b8b565b73ffffffffffffffffffffffffffffffffffffffff166108fc349081150290604051600060405180830381858888f193505050501580156105cd573d6000803e3d6000fd5b5050505050565b60056020528060005260406000206000915054906101000a900460ff1681565b6004818154811061060457600080fd5b906000526020600020016000915090505481565b60026020528060005260406000206000915054906101000a900460ff1681565b606080600080600080600160008881526020019081526020016000206040518060a001604052908160008201805461066f90611860565b80601f016020809104026020016040519081016040528092919081815260200182805461069b90611860565b80156106e85780601f106106bd576101008083540402835291602001916106e8565b820191906000526020600020905b8154815290600101906020018083116106cb57829003601f168201915b5050505050815260200160018201805461070190611860565b80601f016020809104026020016040519081016040528092919081815260200182805461072d90611860565b801561077a5780601f1061074f5761010080835404028352916020019161077a565b820191906000526020600020905b81548152906001019060200180831161075d57829003601f168201915b5050505050815260200160028201548152602001600382015481526020016004820160009054906101000a900460ff161515151581525050905080600001518160200151826040015183606001518460800151955095509550955095505091939590929450565b6107e9610fbb565b6000600160008381526020019081526020016000206002015403610842576040517f08c379a0000000000000000000000000000000000000000000000000000000008152600401610839906118dd565b60405180910390fd5b60016005600083815260200190815260200160002060006101000a81548160ff021916908315150217905550807f638aef8adef10dde4a6d3a8b25d13de8672dfd9ce5a47c8b67dc3d48569d364760405160405180910390a250565b60016020528060005260406000206000915090508060000180546108c190611860565b80601f01602080910402602001604051908101604052809291908181526020018280546108ed90611860565b801561093a5780601f1061090f5761010080835404028352916020019161093a565b820191906000526020600020905b81548152906001019060200180831161091d57829003601f168201915b50505050509080600101805461094f90611860565b80601f016020809104026020016040519081016040528092919081815260200182805461097b90611860565b80156109c85780601f1061099d576101008083540402835291602001916109c8565b820191906000526020600020905b8154815290600101906020018083116109ab57829003601f168201915b5050505050908060020154908060030154908060040160009054906101000a900460ff16905085565b6109f9610fbb565b610a036000611042565b565b60038181548110610a1557600080fd5b906000526020600020016000915054906101000a900473ffffffffffffffffffffffffffffffffffffffff1681565b60006005600083815260200190815260200160002060009054906101000a900460ff169050919050565b610a76610fbb565b60006001600084815260200190815260200160002090508181600301541015610ad4576040517f08c379a0000000000000000000000000000000000000000000000000000000008152600401610acb9061196f565b60405180910390fd5b81816003016000828254610ae8919061198f565b925050819055506000816003015403610b195760008160040160006101000a81548160ff0219169083151502179055505b610b21610b8b565b73ffffffffffffffffffffffffffffffffffffffff163373ffffffffffffffffffffffffffffffffffffffff16847fa91bf27de3b2ac5c122e315cfb7ee965404a4738b4e79f4ed1dc5d12a494a42a85604051610b7e9190611267565b60405180910390a4505050565b60008060009054906101000a900473ffffffffffffffffffffffffffffffffffffffff16905090565b610bbc610fbb565b6000600160008381526020019081526020016000206002015403610c15576040517f08c379a0000000000000000000000000000000000000000000000000000000008152600401610c0c906118dd565b60405180910390fd5b6001600082815260200190815260200160002060008082016000610c39919061110e565b600182016000610c49919061110e565b600282016000905560038201600090556004820160006101000a81549060ff0219169055505060005b600480549050811015610d36578160048281548110610c9457610c936119c3565b5b906000526020600020015403610d235760046001600480549050610cb8919061198f565b81548110610cc957610cc86119c3565b5b906000526020600020015460048281548110610ce857610ce76119c3565b5b90600052602060002001819055506004805480610d0857610d076119f2565b5b60019003818190600052602060002001600090559055610d36565b8080610d2e90611a21565b915050610c72565b506005600082815260200190815260200160002060009054906101000a900460ff1615610d81576005600082815260200190815260200160002060006101000a81549060ff02191690555b807f3c5ce13264433bcf97e5d53c97af4fc33800e8c9dd927f965b116d0018d7cddf60405160405180910390a250565b610db9610fbb565b600073ffffffffffffffffffffffffffffffffffffffff168173ffffffffffffffffffffffffffffffffffffffff1603610e2b5760006040517f1e4fbdf7000000000000000000000000000000000000000000000000000000008152600401610e22919061140d565b60405180910390fd5b610e3481611042565b50565b610e3f610fbb565b6000600160008781526020019081526020016000206002015414610e98576040517f08c379a0000000000000000000000000000000000000000000000000000000008152600401610e8f90611adb565b60405180910390fd5b6040518060a00160405280858152602001848152602001670de0b6b3a764000084610ec39190611717565b8152602001828152602001600083111515815250600160008781526020019081526020016000206000820151816000019081610eff9190611ca7565b506020820151816001019081610f159190611ca7565b50604082015181600201556060820151816003015560808201518160040160006101000a81548160ff0219169083151502179055509050506004859080600181540180825580915050600190039060005260206000200160009091909190915055847f722c04650224f771c04ec5712c74689980b3ddb4eaa233cd8f9c72d7da7fbe2985858585604051610fac9493929190611d79565b60405180910390a25050505050565b610fc3611106565b73ffffffffffffffffffffffffffffffffffffffff16610fe1610b8b565b73ffffffffffffffffffffffffffffffffffffffff161461104057611004611106565b6040517f118cdaa7000000000000000000000000000000000000000000000000000000008152600401611037919061140d565b60405180910390fd5b565b60008060009054906101000a900473ffffffffffffffffffffffffffffffffffffffff169050816000806101000a81548173ffffffffffffffffffffffffffffffffffffffff021916908373ffffffffffffffffffffffffffffffffffffffff1602179055508173ffffffffffffffffffffffffffffffffffffffff168173ffffffffffffffffffffffffffffffffffffffff167f8be0079c531659141344cd1fd0a4f28419497f9722a3daafe3b4186f6b6457e060405160405180910390a35050565b600033905090565b50805461111a90611860565b6000825580601f1061112c575061114b565b601f01602090049060005260206000209081019061114a919061114e565b5b50565b5b8082111561116757600081600090555060010161114f565b5090565b6000604051905090565b600080fd5b600080fd5b6000819050919050565b6111928161117f565b811461119d57600080fd5b50565b6000813590506111af81611189565b92915050565b600080604083850312156111cc576111cb611175565b5b60006111da858286016111a0565b92505060206111eb858286016111a0565b9150509250929050565b60006020828403121561120b5761120a611175565b5b6000611219848285016111a0565b91505092915050565b60008115159050919050565b61123781611222565b82525050565b6000602082019050611252600083018461122e565b92915050565b6112618161117f565b82525050565b600060208201905061127c6000830184611258565b92915050565b600073ffffffffffffffffffffffffffffffffffffffff82169050919050565b60006112ad82611282565b9050919050565b6112bd816112a2565b81146112c857600080fd5b50565b6000813590506112da816112b4565b92915050565b6000602082840312156112f6576112f5611175565b5b6000611304848285016112cb565b91505092915050565b600081519050919050565b600082825260208201905092915050565b60005b8381101561134757808201518184015260208101905061132c565b60008484015250505050565b6000601f19601f8301169050919050565b600061136f8261130d565b6113798185611318565b9350611389818560208601611329565b61139281611353565b840191505092915050565b600060a08201905081810360008301526113b78188611364565b905081810360208301526113cb8187611364565b90506113da6040830186611258565b6113e76060830185611258565b6113f4608083018461122e565b9695505050505050565b611407816112a2565b82525050565b600060208201905061142260008301846113fe565b92915050565b600080fd5b600080fd5b7f4e487b7100000000000000000000000000000000000000000000000000000000600052604160045260246000fd5b61146a82611353565b810181811067ffffffffffffffff8211171561148957611488611432565b5b80604052505050565b600061149c61116b565b90506114a88282611461565b919050565b600067ffffffffffffffff8211156114c8576114c7611432565b5b6114d182611353565b9050602081019050919050565b82818337600083830152505050565b60006115006114fb846114ad565b611492565b90508281526020810184848401111561151c5761151b61142d565b5b6115278482856114de565b509392505050565b600082601f83011261154457611543611428565b5b81356115548482602086016114ed565b91505092915050565b600080600080600060a0868803121561157957611578611175565b5b6000611587888289016111a0565b955050602086013567ffffffffffffffff8111156115a8576115a761117a565b5b6115b48882890161152f565b945050604086013567ffffffffffffffff8111156115d5576115d461117a565b5b6115e18882890161152f565b93505060606115f2888289016111a0565b9250506080611603888289016111a0565b9150509295509295909350565b7f5468697320626f6f6b206973206e6f7420617661696c61626c652e0000000000600082015250565b6000611646601b83611318565b915061165182611610565b602082019050919050565b6000602082019050818103600083015261167581611639565b9050919050565b7f4e6f7420656e6f7567682073746f636b20617661696c61626c652e0000000000600082015250565b60006116b2601b83611318565b91506116bd8261167c565b602082019050919050565b600060208201905081810360008301526116e1816116a5565b9050919050565b7f4e487b7100000000000000000000000000000000000000000000000000000000600052601160045260246000fd5b60006117228261117f565b915061172d8361117f565b925082820261173b8161117f565b91508282048414831517611752576117516116e8565b5b5092915050565b7f496e636f7272656374207061796d656e7420616d6f756e742e00000000000000600082015250565b600061178f601983611318565b915061179a82611759565b602082019050919050565b600060208201905081810360008301526117be81611782565b9050919050565b7f4f7665727061696420666f7220626f6f6b2070757263686173652e0000000000600082015250565b60006117fb601b83611318565b9150611806826117c5565b602082019050919050565b6000602082019050818103600083015261182a816117ee565b9050919050565b7f4e487b7100000000000000000000000000000000000000000000000000000000600052602260045260246000fd5b6000600282049050600182168061187857607f821691505b60208210810361188b5761188a611831565b5b50919050565b7f426f6f6b20646f6573206e6f742065786973742e000000000000000000000000600082015250565b60006118c7601483611318565b91506118d282611891565b602082019050919050565b600060208201905081810360008301526118f6816118ba565b9050919050565b7f4e6f7420656e6f7567682073746f636b20746f20636f6e6669726d207075726360008201527f686173652e000000000000000000000000000000000000000000000000000000602082015250565b6000611959602583611318565b9150611964826118fd565b604082019050919050565b600060208201905081810360008301526119888161194c565b9050919050565b600061199a8261117f565b91506119a58361117f565b92508282039050818111156119bd576119bc6116e8565b5b92915050565b7f4e487b7100000000000000000000000000000000000000000000000000000000600052603260045260246000fd5b7f4e487b7100000000000000000000000000000000000000000000000000000000600052603160045260246000fd5b6000611a2c8261117f565b91507fffffffffffffffffffffffffffffffffffffffffffffffffffffffffffffffff8203611a5e57611a5d6116e8565b5b600182019050919050565b7f426f6f6b20616c7265616479206578697374732077697468207468697320494460008201527f2e00000000000000000000000000000000000000000000000000000000000000602082015250565b6000611ac5602183611318565b9150611ad082611a69565b604082019050919050565b60006020820190508181036000830152611af481611ab8565b9050919050565b60008190508160005260206000209050919050565b60006020601f8301049050919050565b600082821b905092915050565b600060088302611b5d7fffffffffffffffffffffffffffffffffffffffffffffffffffffffffffffffff82611b20565b611b678683611b20565b95508019841693508086168417925050509392505050565b6000819050919050565b6000611ba4611b9f611b9a8461117f565b611b7f565b61117f565b9050919050565b6000819050919050565b611bbe83611b89565b611bd2611bca82611bab565b848454611b2d565b825550505050565b600090565b611be7611bda565b611bf2818484611bb5565b505050565b5b81811015611c1657611c0b600082611bdf565b600181019050611bf8565b5050565b601f821115611c5b57611c2c81611afb565b611c3584611b10565b81016020851015611c44578190505b611c58611c5085611b10565b830182611bf7565b50505b505050565b600082821c905092915050565b6000611c7e60001984600802611c60565b1980831691505092915050565b6000611c978383611c6d565b9150826002028217905092915050565b611cb08261130d565b67ffffffffffffffff811115611cc957611cc8611432565b5b611cd38254611860565b611cde828285611c1a565b600060209050601f831160018114611d115760008415611cff578287015190505b611d098582611c8b565b865550611d71565b601f198416611d1f86611afb565b60005b82811015611d4757848901518255600182019150602085019450602081019050611d22565b86831015611d645784890151611d60601f891682611c6d565b8355505b6001600288020188555050505b505050505050565b60006080820190508181036000830152611d938187611364565b90508181036020830152611da78186611364565b9050611db66040830185611258565b611dc36060830184611258565b9594505050505056fea26469706673582212201c9133f1685d0cf3efa6b59c786f16a23ead2c89eadd426587c2fafe9a6ee57164736f6c63430008140033",
	"linkReferences": {},
	"deployedLinkReferences": {}
}